:020000040800F2
:1000000000200020C904000853040008550400081B
:1000100057040008590400085B04000800000000B1
:100020000000000000000000000000005D04000867
:100030005F04000800000000610400086304000879
:10004000D9040008DD040008E1040008E504000804
:10005000E9040008ED040008F1040008F5040008B4
:10006000F9040008FD040008010500080505000862
:10007000090500080D050008110500081505000810
:10008000190500081D0500082105000825050008C0
:10009000290500082D050008310500083505000870
:1000A000390500083D050008410500084505000820
:1000B000490500084D0500085105000855050008D0
:1000C000590500085D050008610500086505000880
:1000D000690500086D050008710500087505000830
:1000E000790500087D0500088105000885050008E0
:1000F000890500088D050008910500089505000890
:10010000990500089D050008A1050008A50500083F
:10011000A9050008AD050008B1050008B5050008EF
:10012000B9050008BD050008C1050008C50500089F
:10013000C9050008CD050008D1050008D50500084F
:10014000D9050008DD050008E1050008E5050008FF
:10015000E9050008ED050008F1050008F5050008AF
:10016000F9050008FD05000801060008050600085D
:10017000090600080D06000811060008150600080B
:10018000190600081D0600082106000825060008BB
:10019000290600082D06000831060008350600086B
:1001A000390600083D0600084106000880B54348AE
:1001B000016851F4700101604149086850F0010084
:1001C000086000203F4A10600A683F4802400A6009
:1001D0003E483F4A1060086830F4802008600020E4
:1001E0003C49086000F005F85FF000603A4908609B
:1001F00001BD1CB400200190002000903049086827
:1002000050F480300860086810F4003000900198C5
:10021000401C01900098002803D10198B0F5A04F30
:10022000F1D10868800302D50120009001E0002090
:100230000090009801283ED12848026852F0805270
:1002400002602748026852F4404202601D4A136867
:100250001360136853F400431360136853F4A053FE
:100260001360204B1A4C23600B6853F080730B60B3
:100270000B689B01FCD5016851F4803101601A497B
:100280000B68DB03FBD5036853F400330360086895
:100290008003FCD540F2057014490860106880089E
:1002A00080001060106850F002001060106810F0BC
:1002B0000C000828FAD113BC7047000088ED00E05C
:1002C0000038024008380240FFFFF6FE10300024DC
:1002D000043802400C38024008ED00E0403802408B
:1002E00000700040195A400704700040003C024072
:1002F000F0B400220022002200233DE0012414FA81
:1003000003F20D681540954235D1032502685E0061
:1003100015FA06F6B243026006680F795A00974054
:100320003E4306600A79012A02D00A79022A16D1D0
:1003300082685E0015FA06F6B243826086684F79DD
:100340005A0097403E43866042689C4032EA04046B
:10035000446042688C799C40A4B222434260C468E5
:100360005A00954034EA0505C560C468CD795A0045
:1003700095402C43C4605B1C102BBFD3F0BC70476E
:10038000018370474183704781B00021009144F29E
:1003900050614843009002E00098401E0090009891
:1003A0000028F9D101B070471CB50121022000F0EE
:1003B0002FF801208DF8040000208DF8060003209E
:1003C0008DF8050000208DF80700812000900F4C6B
:1003D00069462000FFF78CFF01212000FFF7D0FFC6
:1003E0004FF4FA70FFF7D0FF01212000FFF7CAFF9A
:1003F00080212000FFF7C4FF4FF4FA70FFF7C4FF1D
:1004000080212000FFF7BEFFE6E700000004024065
:10041000C9B2002904D005490A681043086004E005
:1004200002490A6832EA000008607047303802402A
:100430004EF68851CEF20001086840F47000086062
:10044000BFF34F8FBFF36F8F4FF00170E1EE100AD3
:1004500070477047FEE7FEE7FEE7FEE7704770472C
:100460007047704700F00DF8002801D0AFF300800E
:10047000AFF300800020AFF30080FFF795FF00F09E
:1004800002F80120704700F001B800000746384626
:1004900000F002F8FBE7000080B5AFF30080024AED
:1004A00011001820ABBEFBE72600020005480146FC
:1004B00003B4684680F30988AFF30080FFF7B8FF04
:1004C000FFF7D0FFA5EDF5FE014880470148004742
:1004D000AD010008AD040008FFF7FEBFFFF7FEBF47
:1004E000FFF7FEBFFFF7FEBFFFF7FEBFFFF7FEBF40
:1004F000FFF7FEBFFFF7FEBFFFF7FEBFFFF7FEBF30
:10050000FFF7FEBFFFF7FEBFFFF7FEBFFFF7FEBF1F
:10051000FFF7FEBFFFF7FEBFFFF7FEBFFFF7FEBF0F
:10052000FFF7FEBFFFF7FEBFFFF7FEBFFFF7FEBFFF
:10053000FFF7FEBFFFF7FEBFFFF7FEBFFFF7FEBFEF
:10054000FFF7FEBFFFF7FEBFFFF7FEBFFFF7FEBFDF
:10055000FFF7FEBFFFF7FEBFFFF7FEBFFFF7FEBFCF
:10056000FFF7FEBFFFF7FEBFFFF7FEBFFFF7FEBFBF
:10057000FFF7FEBFFFF7FEBFFFF7FEBFFFF7FEBFAF
:10058000FFF7FEBFFFF7FEBFFFF7FEBFFFF7FEBF9F
:10059000FFF7FEBFFFF7FEBFFFF7FEBFFFF7FEBF8F
:1005A000FFF7FEBFFFF7FEBFFFF7FEBFFFF7FEBF7F
:1005B000FFF7FEBFFFF7FEBFFFF7FEBFFFF7FEBF6F
:1005C000FFF7FEBFFFF7FEBFFFF7FEBFFFF7FEBF5F
:1005D000FFF7FEBFFFF7FEBFFFF7FEBFFFF7FEBF4F
:1005E000FFF7FEBFFFF7FEBFFFF7FEBFFFF7FEBF3F
:1005F000FFF7FEBFFFF7FEBFFFF7FEBFFFF7FEBF2F
:10060000FFF7FEBFFFF7FEBFFFF7FEBFFFF7FEBF1E
:10061000FFF7FEBFFFF7FEBFFFF7FEBFFFF7FEBF0E
:10062000FFF7FEBFFFF7FEBFFFF7FEBFFFF7FEBFFE
:10063000FFF7FEBFFFF7FEBFFFF7FEBFFFF7FEBFEE
:04064000FFF7FEBF03
:04000005080004AD3E
:00000001FF
